{
  "contractName": "DAO",
  "abi": [
    {
      "inputs": [
        {
          "internalType": "uint256",
          "name": "_paticipationTimeEnd",
          "type": "uint256"
        },
        {
          "internalType": "uint256",
          "name": "_voteTime",
          "type": "uint256"
        },
        {
          "internalType": "uint256",
          "name": "_quorum",
          "type": "uint256"
        }
      ],
      "stateMutability": "nonpayable",
      "type": "constructor"
    },
    {
      "inputs": [],
      "name": "availableFunds",
      "outputs": [
        {
          "internalType": "uint256",
          "name": "",
          "type": "uint256"
        }
      ],
      "stateMutability": "view",
      "type": "function",
      "constant": true
    },
    {
      "inputs": [
        {
          "internalType": "uint256",
          "name": "",
          "type": "uint256"
        }
      ],
      "name": "investorList",
      "outputs": [
        {
          "internalType": "address",
          "name": "",
          "type": "address"
        }
      ],
      "stateMutability": "view",
      "type": "function",
      "constant": true
    },
    {
      "inputs": [
        {
          "internalType": "address",
          "name": "",
          "type": "address"
        }
      ],
      "name": "isInvestor",
      "outputs": [
        {
          "internalType": "bool",
          "name": "",
          "type": "bool"
        }
      ],
      "stateMutability": "view",
      "type": "function",
      "constant": true
    },
    {
      "inputs": [
        {
          "internalType": "address",
          "name": "",
          "type": "address"
        },
        {
          "internalType": "uint256",
          "name": "",
          "type": "uint256"
        }
      ],
      "name": "isVoted",
      "outputs": [
        {
          "internalType": "bool",
          "name": "",
          "type": "bool"
        }
      ],
      "stateMutability": "view",
      "type": "function",
      "constant": true
    },
    {
      "inputs": [],
      "name": "manager",
      "outputs": [
        {
          "internalType": "address",
          "name": "",
          "type": "address"
        }
      ],
      "stateMutability": "view",
      "type": "function",
      "constant": true
    },
    {
      "inputs": [],
      "name": "nextProposalId",
      "outputs": [
        {
          "internalType": "uint256",
          "name": "",
          "type": "uint256"
        }
      ],
      "stateMutability": "view",
      "type": "function",
      "constant": true
    },
    {
      "inputs": [
        {
          "internalType": "address",
          "name": "",
          "type": "address"
        }
      ],
      "name": "numOfshares",
      "outputs": [
        {
          "internalType": "uint256",
          "name": "",
          "type": "uint256"
        }
      ],
      "stateMutability": "view",
      "type": "function",
      "constant": true
    },
    {
      "inputs": [],
      "name": "paticipationTimeEnd",
      "outputs": [
        {
          "internalType": "uint256",
          "name": "",
          "type": "uint256"
        }
      ],
      "stateMutability": "view",
      "type": "function",
      "constant": true
    },
    {
      "inputs": [
        {
          "internalType": "uint256",
          "name": "",
          "type": "uint256"
        }
      ],
      "name": "proposals",
      "outputs": [
        {
          "internalType": "uint256",
          "name": "id",
          "type": "uint256"
        },
        {
          "internalType": "string",
          "name": "description",
          "type": "string"
        },
        {
          "internalType": "uint256",
          "name": "amount",
          "type": "uint256"
        },
        {
          "internalType": "address payable",
          "name": "recipient",
          "type": "address"
        },
        {
          "internalType": "uint256",
          "name": "votes",
          "type": "uint256"
        },
        {
          "internalType": "uint256",
          "name": "end",
          "type": "uint256"
        },
        {
          "internalType": "bool",
          "name": "isExecuted",
          "type": "bool"
        }
      ],
      "stateMutability": "view",
      "type": "function",
      "constant": true
    },
    {
      "inputs": [],
      "name": "quorum",
      "outputs": [
        {
          "internalType": "uint256",
          "name": "",
          "type": "uint256"
        }
      ],
      "stateMutability": "view",
      "type": "function",
      "constant": true
    },
    {
      "inputs": [],
      "name": "totalShares",
      "outputs": [
        {
          "internalType": "uint256",
          "name": "",
          "type": "uint256"
        }
      ],
      "stateMutability": "view",
      "type": "function",
      "constant": true
    },
    {
      "inputs": [],
      "name": "voteTime",
      "outputs": [
        {
          "internalType": "uint256",
          "name": "",
          "type": "uint256"
        }
      ],
      "stateMutability": "view",
      "type": "function",
      "constant": true
    },
    {
      "inputs": [
        {
          "internalType": "address",
          "name": "",
          "type": "address"
        },
        {
          "internalType": "address",
          "name": "",
          "type": "address"
        }
      ],
      "name": "withdrwalStatus",
      "outputs": [
        {
          "internalType": "bool",
          "name": "",
          "type": "bool"
        }
      ],
      "stateMutability": "view",
      "type": "function",
      "constant": true
    },
    {
      "inputs": [],
      "name": "contribution",
      "outputs": [],
      "stateMutability": "payable",
      "type": "function",
      "payable": true
    },
    {
      "inputs": [
        {
          "internalType": "uint256",
          "name": "amount",
          "type": "uint256"
        }
      ],
      "name": "reedemShare",
      "outputs": [],
      "stateMutability": "nonpayable",
      "type": "function"
    },
    {
      "inputs": [
        {
          "internalType": "uint256",
          "name": "amount",
          "type": "uint256"
        },
        {
          "internalType": "address",
          "name": "to",
          "type": "address"
        }
      ],
      "name": "transferShare",
      "outputs": [],
      "stateMutability": "nonpayable",
      "type": "function"
    },
    {
      "inputs": [
        {
          "internalType": "string",
          "name": "description",
          "type": "string"
        },
        {
          "internalType": "uint256",
          "name": "amount",
          "type": "uint256"
        },
        {
          "internalType": "address payable",
          "name": "recipient",
          "type": "address"
        }
      ],
      "name": "createProposal",
      "outputs": [],
      "stateMutability": "nonpayable",
      "type": "function"
    },
    {
      "inputs": [
        {
          "internalType": "uint256",
          "name": "proposalId",
          "type": "uint256"
        }
      ],
      "name": "voteProposal",
      "outputs": [],
      "stateMutability": "nonpayable",
      "type": "function"
    },
    {
      "inputs": [
        {
          "internalType": "uint256",
          "name": "proposalId",
          "type": "uint256"
        }
      ],
      "name": "executeProposal",
      "outputs": [],
      "stateMutability": "nonpayable",
      "type": "function"
    },
    {
      "inputs": [
        {
          "internalType": "address",
          "name": "to",
          "type": "address"
        }
      ],
      "name": "allow",
      "outputs": [],
      "stateMutability": "nonpayable",
      "type": "function"
    },
    {
      "inputs": [
        {
          "internalType": "address",
          "name": "to",
          "type": "address"
        }
      ],
      "name": "disallow",
      "outputs": [],
      "stateMutability": "nonpayable",
      "type": "function"
    },
    {
      "inputs": [
        {
          "internalType": "uint256",
          "name": "amount",
          "type": "uint256"
        }
      ],
      "name": "withdrawEther",
      "outputs": [],
      "stateMutability": "nonpayable",
      "type": "function"
    },
    {
      "inputs": [],
      "name": "ProposalList",
      "outputs": [
        {
          "components": [
            {
              "internalType": "uint256",
              "name": "id",
              "type": "uint256"
            },
            {
              "internalType": "string",
              "name": "description",
              "type": "string"
            },
            {
              "internalType": "uint256",
              "name": "amount",
              "type": "uint256"
            },
            {
              "internalType": "address payable",
              "name": "recipient",
              "type": "address"
            },
            {
              "internalType": "uint256",
              "name": "votes",
              "type": "uint256"
            },
            {
              "internalType": "uint256",
              "name": "end",
              "type": "uint256"
            },
            {
              "internalType": "bool",
              "name": "isExecuted",
              "type": "bool"
            }
          ],
          "internalType": "struct DAO.Proposal[]",
          "name": "",
          "type": "tuple[]"
        }
      ],
      "stateMutability": "view",
      "type": "function",
      "constant": true
    },
    {
      "inputs": [],
      "name": "investorsLists",
      "outputs": [
        {
          "internalType": "address[]",
          "name": "",
          "type": "address[]"
        }
      ],
      "stateMutability": "view",
      "type": "function",
      "constant": true
    }
  ],
  "bytecode": "0x60806040523480156200001157600080fd5b506040516200327a3803806200327a833981810160405281019062000037919062000136565b600081118015620000485750606481105b6200008a576040517f08c379a0000000000000000000000000000000000000000000000000000000008152600401620000819062000219565b60405180910390fd5b82426200009891906200026a565b60088190555081600a8190555080600b8190555033600c60006101000a81548173ffffffffffffffffffffffffffffffffffffffff021916908373ffffffffffffffffffffffffffffffffffffffff160217905550505050620002c7565b600080fd5b6000819050919050565b6200011081620000fb565b81146200011c57600080fd5b50565b600081519050620001308162000105565b92915050565b600080600060608486031215620001525762000151620000f6565b5b600062000162868287016200011f565b935050602062000175868287016200011f565b925050604062000188868287016200011f565b9150509250925092565b600082825260208201905092915050565b7f5468652076616c75652073686f756c64206265206265747765656e203020616e60008201527f6420313030000000000000000000000000000000000000000000000000000000602082015250565b60006200020160258362000192565b91506200020e82620001a3565b604082019050919050565b600060208201905081810360008301526200023481620001f2565b9050919050565b7f4e487b7100000000000000000000000000000000000000000000000000000000600052601160045260246000fd5b60006200027782620000fb565b91506200028483620000fb565b9250827fffffffffffffffffffffffffffffffffffffffffffffffffffffffffffffffff03821115620002bc57620002bb6200023b565b5b828201905092915050565b612fa380620002d76000396000f3fe60806040526004361061014b5760003560e01c806366efb832116100b6578063bcf93dd61161006f578063bcf93dd614610465578063c1188cff14610490578063cee2a9cf146104b9578063e65da429146104f6578063f242b77214610533578063ff9913e8146105705761014b565b806366efb832146103575780636ac1e01f146103825780636dfc1099146103ab578063807896d5146103d65780638ee36f05146103ff578063a9ed9cb81461043c5761014b565b80632ab09d14116101085780632ab09d14146102785780633a98ef39146102a35780633bed33ce146102ce57806346fcff4c146102f7578063481c6a751461032257806350520b1f1461034d5761014b565b8063013cf08b14610150578063039383e6146101935780630d61b519146101bc5780630d6fd324146101e557806312f9b48e146102105780631703a0181461024d575b600080fd5b34801561015c57600080fd5b5061017760048036038101906101729190611f1e565b610599565b60405161018a979695949392919061204f565b60405180910390f35b34801561019f57600080fd5b506101ba60048036038101906101b59190612103565b610690565b005b3480156101c857600080fd5b506101e360048036038101906101de9190611f1e565b610990565b005b3480156101f157600080fd5b506101fa610aec565b6040516102079190612201565b60405180910390f35b34801561021c57600080fd5b5061023760048036038101906102329190611f1e565b610b7a565b6040516102449190612232565b60405180910390f35b34801561025957600080fd5b50610262610bb9565b60405161026f919061224d565b60405180910390f35b34801561028457600080fd5b5061028d610bbf565b60405161029a919061224d565b60405180910390f35b3480156102af57600080fd5b506102b8610bc5565b6040516102c5919061224d565b60405180910390f35b3480156102da57600080fd5b506102f560048036038101906102f09190611f1e565b610bcb565b005b34801561030357600080fd5b5061030c610e42565b604051610319919061224d565b60405180910390f35b34801561032e57600080fd5b50610337610e48565b6040516103449190612232565b60405180910390f35b610355610e6e565b005b34801561036357600080fd5b5061036c61103a565b604051610379919061224d565b60405180910390f35b34801561038e57600080fd5b506103a960048036038101906103a491906122f9565b611040565b005b3480156103b757600080fd5b506103c0611299565b6040516103cd9190612542565b60405180910390f35b3480156103e257600080fd5b506103fd60048036038101906103f89190611f1e565b611484565b005b34801561040b57600080fd5b5061042660048036038101906104219190612564565b61175b565b60405161043391906125a4565b60405180910390f35b34801561044857600080fd5b50610463600480360381019061045e91906125bf565b61178a565b005b34801561047157600080fd5b5061047a6118d4565b604051610487919061224d565b60405180910390f35b34801561049c57600080fd5b506104b760048036038101906104b29190611f1e565b6118da565b005b3480156104c557600080fd5b506104e060048036038101906104db91906125bf565b611b8c565b6040516104ed91906125a4565b60405180910390f35b34801561050257600080fd5b5061051d600480360381019061051891906125bf565b611bac565b60405161052a919061224d565b60405180910390f35b34801561053f57600080fd5b5061055a600480360381019061055591906125ec565b611bc4565b60405161056791906125a4565b60405180910390f35b34801561057c57600080fd5b50610597600480360381019061059291906125bf565b611bf3565b005b60056020528060005260406000206000915090508060000154908060010180546105c29061265b565b80601f01602080910402602001604051908101604052809291908181526020018280546105ee9061265b565b801561063b5780601f106106105761010080835404028352916020019161063b565b820191906000526020600020905b81548152906001019060200180831161061e57829003601f168201915b5050505050908060020154908060030160009054906101000a900473ffffffffffffffffffffffffffffffffffffffff16908060040154908060050154908060060160009054906101000a900460ff16905087565b600115156000803373ffffffffffffffffffffffffffffffffffffffff1673ffffffffffffffffffffffffffffffffffffffff16815260200190815260200160002060009054906101000a900460ff16151514610722576040517f08c379a0000000000000000000000000000000000000000000000000000000008152600401610719906126d9565b60405180910390fd5b81600160003373ffffffffffffffffffffffffffffffffffffffff1673ffffffffffffffffffffffffffffffffffffffff1681526020019081526020016000205410156107a4576040517f08c379a000000000000000000000000000000000000000000000000000000000815260040161079b90612745565b60405180910390fd5b8160075410156107e9576040517f08c379a00000000000000000000000000000000000000000000000000000000081526004016107e0906127b1565b60405180910390fd5b81600160003373ffffffffffffffffffffffffffffffffffffffff1673ffffffffffffffffffffffffffffffffffffffff16815260200190815260200160002060008282546108389190612800565b925050819055506000600160003373ffffffffffffffffffffffffffffffffffffffff1673ffffffffffffffffffffffffffffffffffffffff1681526020019081526020016000205414156108df5760008060003373ffffffffffffffffffffffffffffffffffffffff1673ffffffffffffffffffffffffffffffffffffffff16815260200190815260200160002060006101000a81548160ff0219169083151502179055505b81600160008373ffffffffffffffffffffffffffffffffffffffff1673ffffffffffffffffffffffffffffffffffffffff168152602001908152602001600020600082825461092e9190612834565b9250508190555060016000808373ffffffffffffffffffffffffffffffffffffffff1673ffffffffffffffffffffffffffffffffffffffff16815260200190815260200160002060006101000a81548160ff0219169083151502179055505050565b3373ffffffffffffffffffffffffffffffffffffffff16600c60009054906101000a900473ffffffffffffffffffffffffffffffffffffffff1673ffffffffffffffffffffffffffffffffffffffff1614610a20576040517f08c379a0000000000000000000000000000000000000000000000000000000008152600401610a17906128d6565b60405180910390fd5b6000600560008381526020019081526020016000209050600b5460065460648360040154610a4e91906128f6565b610a58919061297f565b1015610a99576040517f08c379a0000000000000000000000000000000000000000000000000000000008152600401610a90906129fc565b60405180910390fd5b60018160060160006101000a81548160ff021916908315150217905550610ae881600201548260030160009054906101000a900473ffffffffffffffffffffffffffffffffffffffff16611d3d565b5050565b60606004805480602002602001604051908101604052809291908181526020018280548015610b7057602002820191906000526020600020905b8160009054906101000a900473ffffffffffffffffffffffffffffffffffffffff1673ffffffffffffffffffffffffffffffffffffffff1681526020019060010190808311610b26575b5050505050905090565b60048181548110610b8a57600080fd5b906000526020600020016000915054906101000a900473ffffffffffffffffffffffffffffffffffffffff1681565b600b5481565b60095481565b60065481565b6001151560036000600c60009054906101000a900473ffffffffffffffffffffffffffffffffffffffff1673ffffffffffffffffffffffffffffffffffffffff1673ffffffffffffffffffffffffffffffffffffffff16815260200190815260200160002060003373ffffffffffffffffffffffffffffffffffffffff1673ffffffffffffffffffffffffffffffffffffffff16815260200190815260200160002060009054906101000a900460ff16151514610cbd576040517f08c379a0000000000000000000000000000000000000000000000000000000008152600401610cb490612a68565b60405180910390fd5b80600160003373ffffffffffffffffffffffffffffffffffffffff1673ffffffffffffffffffffffffffffffffffffffff168152602001908152602001600020541015610d3f576040517f08c379a0000000000000000000000000000000000000000000000000000000008152600401610d3690612ad4565b60405180910390fd5b80600160003373ffffffffffffffffffffffffffffffffffffffff1673ffffffffffffffffffffffffffffffffffffffff1681526020019081526020016000206000828254610d8e9190612800565b925050819055506000600160003373ffffffffffffffffffffffffffffffffffffffff1673ffffffffffffffffffffffffffffffffffffffff168152602001908152602001600020541415610e355760008060003373ffffffffffffffffffffffffffffffffffffffff1673ffffffffffffffffffffffffffffffffffffffff16815260200190815260200160002060006101000a81548160ff0219169083151502179055505b610e3f8133611d3d565b50565b60075481565b600c60009054906101000a900473ffffffffffffffffffffffffffffffffffffffff1681565b426008541015610eb3576040517f08c379a0000000000000000000000000000000000000000000000000000000008152600401610eaa90612b40565b60405180910390fd5b60003411610ef6576040517f08c379a0000000000000000000000000000000000000000000000000000000008152600401610eed90612bd2565b60405180910390fd5b60016000803373ffffffffffffffffffffffffffffffffffffffff1673ffffffffffffffffffffffffffffffffffffffff16815260200190815260200160002060006101000a81548160ff02191690831515021790555034600160003373ffffffffffffffffffffffffffffffffffffffff1673ffffffffffffffffffffffffffffffffffffffff1681526020019081526020016000206000828254610f9c9190612834565b925050819055503460066000828254610fb59190612834565b925050819055503460076000828254610fce9190612834565b925050819055506004339080600181540180825580915050600190039060005260206000200160009091909190916101000a81548173ffffffffffffffffffffffffffffffffffffffff021916908373ffffffffffffffffffffffffffffffffffffffff160217905550565b60085481565b600115156000803373ffffffffffffffffffffffffffffffffffffffff1673ffffffffffffffffffffffffffffffffffffffff16815260200190815260200160002060009054906101000a900460ff161515146110d2576040517f08c379a00000000000000000000000000000000000000000000000000000000081526004016110c9906126d9565b60405180910390fd5b600754821115611117576040517f08c379a000000000000000000000000000000000000000000000000000000000815260040161110e90612c3e565b60405180910390fd5b6040518060e00160405280600954815260200185858080601f016020809104026020016040519081016040528093929190818152602001838380828437600081840152601f19601f8201169050808301925050505050505081526020018381526020018273ffffffffffffffffffffffffffffffffffffffff16815260200160008152602001600a54426111ab9190612834565b8152602001600015158152506005600060095481526020019081526020016000206000820151816000015560208201518160010190805190602001906111f2929190611de6565b506040820151816002015560608201518160030160006101000a81548173ffffffffffffffffffffffffffffffffffffffff021916908373ffffffffffffffffffffffffffffffffffffffff1602179055506080820151816004015560a0820151816005015560c08201518160060160006101000a81548160ff0219169083151502179055509050506009600081548092919061128e90612c5e565b919050555050505050565b6060600060095467ffffffffffffffff8111156112b9576112b8612ca7565b5b6040519080825280602002602001820160405280156112f257816020015b6112df611e6c565b8152602001906001900390816112d75790505b50905060005b60095481101561147c57600560008281526020019081526020016000206040518060e00160405290816000820154815260200160018201805461133a9061265b565b80601f01602080910402602001604051908101604052809291908181526020018280546113669061265b565b80156113b35780601f10611388576101008083540402835291602001916113b3565b820191906000526020600020905b81548152906001019060200180831161139657829003601f168201915b50505050508152602001600282015481526020016003820160009054906101000a900473ffffffffffffffffffffffffffffffffffffffff1673ffffffffffffffffffffffffffffffffffffffff1673ffffffffffffffffffffffffffffffffffffffff16815260200160048201548152602001600582015481526020016006820160009054906101000a900460ff16151515158152505082828151811061145e5761145d612cd6565b5b6020026020010181905250808061147490612c5e565b9150506112f8565b508091505090565b600115156000803373ffffffffffffffffffffffffffffffffffffffff1673ffffffffffffffffffffffffffffffffffffffff16815260200190815260200160002060009054906101000a900460ff16151514611516576040517f08c379a000000000000000000000000000000000000000000000000000000000815260040161150d906126d9565b60405180910390fd5b600060056000838152602001908152602001600020905060001515600260003373ffffffffffffffffffffffffffffffffffffffff1673ffffffffffffffffffffffffffffffffffffffff168152602001908152602001600020600084815260200190815260200160002060009054906101000a900460ff161515146115d1576040517f08c379a00000000000000000000000000000000000000000000000000000000081526004016115c890612d77565b60405180910390fd5b426005600084815260200190815260200160002060050154101561162a576040517f08c379a000000000000000000000000000000000000000000000000000000000815260040161162190612de3565b60405180910390fd5b600015156005600084815260200190815260200160002060060160009054906101000a900460ff16151514611694576040517f08c379a000000000000000000000000000000000000000000000000000000000815260040161168b90612e4f565b60405180910390fd5b6001600260003373ffffffffffffffffffffffffffffffffffffffff1673ffffffffffffffffffffffffffffffffffffffff168152602001908152602001600020600084815260200190815260200160002060006101000a81548160ff021916908315150217905550600160003373ffffffffffffffffffffffffffffffffffffffff1673ffffffffffffffffffffffffffffffffffffffff168152602001908152602001600020548160040160008282546117509190612834565b925050819055505050565b60026020528160005260406000206020528060005260406000206000915091509054906101000a900460ff1681565b3373ffffffffffffffffffffffffffffffffffffffff16600c60009054906101000a900473ffffffffffffffffffffffffffffffffffffffff1673ffffffffffffffffffffffffffffffffffffffff161461181a576040517f08c379a0000000000000000000000000000000000000000000000000000000008152600401611811906128d6565b60405180910390fd5b600060036000600c60009054906101000a900473ffffffffffffffffffffffffffffffffffffffff1673ffffffffffffffffffffffffffffffffffffffff1673ffffffffffffffffffffffffffffffffffffffff16815260200190815260200160002060008373ffffffffffffffffffffffffffffffffffffffff1673ffffffffffffffffffffffffffffffffffffffff16815260200190815260200160002060006101000a81548160ff02191690831515021790555050565b600a5481565b600115156000803373ffffffffffffffffffffffffffffffffffffffff1673ffffffffffffffffffffffffffffffffffffffff16815260200190815260200160002060009054906101000a900460ff1615151461196c576040517f08c379a0000000000000000000000000000000000000000000000000000000008152600401611963906126d9565b60405180910390fd5b80600160003373ffffffffffffffffffffffffffffffffffffffff1673ffffffffffffffffffffffffffffffffffffffff1681526020019081526020016000205410156119ee576040517f08c379a00000000000000000000000000000000000000000000000000000000081526004016119e590612ee1565b60405180910390fd5b806007541015611a33576040517f08c379a0000000000000000000000000000000000000000000000000000000008152600401611a2a906127b1565b60405180910390fd5b80600160003373ffffffffffffffffffffffffffffffffffffffff1673ffffffffffffffffffffffffffffffffffffffff1681526020019081526020016000206000828254611a829190612800565b925050819055506000600160003373ffffffffffffffffffffffffffffffffffffffff1673ffffffffffffffffffffffffffffffffffffffff168152602001908152602001600020541415611b295760008060003373ffffffffffffffffffffffffffffffffffffffff1673ffffffffffffffffffffffffffffffffffffffff16815260200190815260200160002060006101000a81548160ff0219169083151502179055505b8060076000828254611b3b9190612800565b925050819055503373ffffffffffffffffffffffffffffffffffffffff166108fc829081150290604051600060405180830381858888f19350505050158015611b88573d6000803e3d6000fd5b5050565b60006020528060005260406000206000915054906101000a900460ff1681565b60016020528060005260406000206000915090505481565b60036020528160005260406000206020528060005260406000206000915091509054906101000a900460ff1681565b3373ffffffffffffffffffffffffffffffffffffffff16600c60009054906101000a900473ffffffffffffffffffffffffffffffffffffffff1673ffffffffffffffffffffffffffffffffffffffff1614611c83576040517f08c379a0000000000000000000000000000000000000000000000000000000008152600401611c7a906128d6565b60405180910390fd5b600160036000600c60009054906101000a900473ffffffffffffffffffffffffffffffffffffffff1673ffffffffffffffffffffffffffffffffffffffff1673ffffffffffffffffffffffffffffffffffffffff16815260200190815260200160002060008373ffffffffffffffffffffffffffffffffffffffff1673ffffffffffffffffffffffffffffffffffffffff16815260200190815260200160002060006101000a81548160ff02191690831515021790555050565b600754821115611d82576040517f08c379a0000000000000000000000000000000000000000000000000000000008152600401611d7990612f4d565b60405180910390fd5b8160076000828254611d949190612800565b925050819055508073ffffffffffffffffffffffffffffffffffffffff166108fc839081150290604051600060405180830381858888f19350505050158015611de1573d6000803e3d6000fd5b505050565b828054611df29061265b565b90600052602060002090601f016020900481019282611e145760008555611e5b565b82601f10611e2d57805160ff1916838001178555611e5b565b82800160010185558215611e5b579182015b82811115611e5a578251825591602001919060010190611e3f565b5b509050611e689190611ec1565b5090565b6040518060e00160405280600081526020016060815260200160008152602001600073ffffffffffffffffffffffffffffffffffffffff16815260200160008152602001600081526020016000151581525090565b5b80821115611eda576000816000905550600101611ec2565b5090565b600080fd5b600080fd5b6000819050919050565b611efb81611ee8565b8114611f0657600080fd5b50565b600081359050611f1881611ef2565b92915050565b600060208284031215611f3457611f33611ede565b5b6000611f4284828501611f09565b91505092915050565b611f5481611ee8565b82525050565b600081519050919050565b600082825260208201905092915050565b60005b83811015611f94578082015181840152602081019050611f79565b83811115611fa3576000848401525b50505050565b6000601f19601f8301169050919050565b6000611fc582611f5a565b611fcf8185611f65565b9350611fdf818560208601611f76565b611fe881611fa9565b840191505092915050565b600073ffffffffffffffffffffffffffffffffffffffff82169050919050565b600061201e82611ff3565b9050919050565b61202e81612013565b82525050565b60008115159050919050565b61204981612034565b82525050565b600060e082019050612064600083018a611f4b565b81810360208301526120768189611fba565b90506120856040830188611f4b565b6120926060830187612025565b61209f6080830186611f4b565b6120ac60a0830185611f4b565b6120b960c0830184612040565b98975050505050505050565b60006120d082611ff3565b9050919050565b6120e0816120c5565b81146120eb57600080fd5b50565b6000813590506120fd816120d7565b92915050565b6000806040838503121561211a57612119611ede565b5b600061212885828601611f09565b9250506020612139858286016120ee565b9150509250929050565b600081519050919050565b600082825260208201905092915050565b6000819050602082019050919050565b612178816120c5565b82525050565b600061218a838361216f565b60208301905092915050565b6000602082019050919050565b60006121ae82612143565b6121b8818561214e565b93506121c38361215f565b8060005b838110156121f45781516121db888261217e565b97506121e683612196565b9250506001810190506121c7565b5085935050505092915050565b6000602082019050818103600083015261221b81846121a3565b905092915050565b61222c816120c5565b82525050565b60006020820190506122476000830184612223565b92915050565b60006020820190506122626000830184611f4b565b92915050565b600080fd5b600080fd5b600080fd5b60008083601f84011261228d5761228c612268565b5b8235905067ffffffffffffffff8111156122aa576122a961226d565b5b6020830191508360018202830111156122c6576122c5612272565b5b9250929050565b6122d681612013565b81146122e157600080fd5b50565b6000813590506122f3816122cd565b92915050565b6000806000806060858703121561231357612312611ede565b5b600085013567ffffffffffffffff81111561233157612330611ee3565b5b61233d87828801612277565b9450945050602061235087828801611f09565b9250506040612361878288016122e4565b91505092959194509250565b600081519050919050565b600082825260208201905092915050565b6000819050602082019050919050565b6123a281611ee8565b82525050565b600082825260208201905092915050565b60006123c482611f5a565b6123ce81856123a8565b93506123de818560208601611f76565b6123e781611fa9565b840191505092915050565b6123fb81612013565b82525050565b61240a81612034565b82525050565b600060e0830160008301516124286000860182612399565b506020830151848203602086015261244082826123b9565b91505060408301516124556040860182612399565b50606083015161246860608601826123f2565b50608083015161247b6080860182612399565b5060a083015161248e60a0860182612399565b5060c08301516124a160c0860182612401565b508091505092915050565b60006124b88383612410565b905092915050565b6000602082019050919050565b60006124d88261236d565b6124e28185612378565b9350836020820285016124f485612389565b8060005b85811015612530578484038952815161251185826124ac565b945061251c836124c0565b925060208a019950506001810190506124f8565b50829750879550505050505092915050565b6000602082019050818103600083015261255c81846124cd565b905092915050565b6000806040838503121561257b5761257a611ede565b5b6000612589858286016120ee565b925050602061259a85828601611f09565b9150509250929050565b60006020820190506125b96000830184612040565b92915050565b6000602082840312156125d5576125d4611ede565b5b60006125e3848285016120ee565b91505092915050565b6000806040838503121561260357612602611ede565b5b6000612611858286016120ee565b9250506020612622858286016120ee565b9150509250929050565b7f4e487b7100000000000000000000000000000000000000000000000000000000600052602260045260246000fd5b6000600282049050600182168061267357607f821691505b602082108114156126875761268661262c565b5b50919050565b7f596f7520617265206e6f7420616e20696e766573746f72000000000000000000600082015250565b60006126c3601783611f65565b91506126ce8261268d565b602082019050919050565b600060208201905081810360008301526126f2816126b6565b9050919050565b7f496e73756666696369656e742073686172657300000000000000000000000000600082015250565b600061272f601383611f65565b915061273a826126f9565b602082019050919050565b6000602082019050818103600083015261275e81612722565b9050919050565b7f4e6f742073756666696369656e742066756e6473000000000000000000000000600082015250565b600061279b601483611f65565b91506127a682612765565b602082019050919050565b600060208201905081810360008301526127ca8161278e565b9050919050565b7f4e487b7100000000000000000000000000000000000000000000000000000000600052601160045260246000fd5b600061280b82611ee8565b915061281683611ee8565b925082821015612829576128286127d1565b5b828203905092915050565b600061283f82611ee8565b915061284a83611ee8565b9250827fffffffffffffffffffffffffffffffffffffffffffffffffffffffffffffffff0382111561287f5761287e6127d1565b5b828201905092915050565b7f596f7520617265206e6f742061206d616e616765720000000000000000000000600082015250565b60006128c0601583611f65565b91506128cb8261288a565b602082019050919050565b600060208201905081810360008301526128ef816128b3565b9050919050565b600061290182611ee8565b915061290c83611ee8565b9250817fffffffffffffffffffffffffffffffffffffffffffffffffffffffffffffffff0483118215151615612945576129446127d1565b5b828202905092915050565b7f4e487b7100000000000000000000000000000000000000000000000000000000600052601260045260246000fd5b600061298a82611ee8565b915061299583611ee8565b9250826129a5576129a4612950565b5b828204905092915050565b7f4e6f742067726561746572207468616e207468652071756f72756d0000000000600082015250565b60006129e6601b83611f65565b91506129f1826129b0565b602082019050919050565b60006020820190508181036000830152612a15816129d9565b9050919050565b7f596f7520617265206e6f7420616c6c6f77656420746f20776974686472617700600082015250565b6000612a52601f83611f65565b9150612a5d82612a1c565b602082019050919050565b60006020820190508181036000830152612a8181612a45565b9050919050565b7f4e6f7420656e6f756768742062616c616e636520746f20776974686472617700600082015250565b6000612abe601f83611f65565b9150612ac982612a88565b602082019050919050565b60006020820190508181036000830152612aed81612ab1565b9050919050565b7f436f6e747269627574696f6e2054696d6520456e646564000000000000000000600082015250565b6000612b2a601783611f65565b9150612b3582612af4565b602082019050919050565b60006020820190508181036000830152612b5981612b1d565b9050919050565b7f496e76657374696d656e7420616d6f756e742073686f756c642062652067726560008201527f61746572207468616e2030000000000000000000000000000000000000000000602082015250565b6000612bbc602b83611f65565b9150612bc782612b60565b604082019050919050565b60006020820190508181036000830152612beb81612baf565b9050919050565b7f4e6f7420656e6f7567682066756e647300000000000000000000000000000000600082015250565b6000612c28601083611f65565b9150612c3382612bf2565b602082019050919050565b60006020820190508181036000830152612c5781612c1b565b9050919050565b6000612c6982611ee8565b91507fffffffffffffffffffffffffffffffffffffffffffffffffffffffffffffffff821415612c9c57612c9b6127d1565b5b600182019050919050565b7f4e487b7100000000000000000000000000000000000000000000000000000000600052604160045260246000fd5b7f4e487b7100000000000000000000000000000000000000000000000000000000600052603260045260246000fd5b7f596f75206861766520616c726561647920766f74656420666f7220746869732060008201527f70726f706f73616c206964000000000000000000000000000000000000000000602082015250565b6000612d61602b83611f65565b9150612d6c82612d05565b604082019050919050565b60006020820190508181036000830152612d9081612d54565b9050919050565b7f566f74696e672074696d652068617320656e6465640000000000000000000000600082015250565b6000612dcd601583611f65565b9150612dd882612d97565b602082019050919050565b60006020820190508181036000830152612dfc81612dc0565b9050919050565b7f546869732068617320616c726561647920657865637574656400000000000000600082015250565b6000612e39601983611f65565b9150612e4482612e03565b602082019050919050565b60006020820190508181036000830152612e6881612e2c565b9050919050565b7f596f7520646f206e6f7420686176652073756666696369656e7420736861726560008201527f7300000000000000000000000000000000000000000000000000000000000000602082015250565b6000612ecb602183611f65565b9150612ed682612e6f565b604082019050919050565b60006020820190508181036000830152612efa81612ebe565b9050919050565b7f46756e6473206e6f7420617661696c61626c6500000000000000000000000000600082015250565b6000612f37601383611f65565b9150612f4282612f01565b602082019050919050565b60006020820190508181036000830152612f6681612f2a565b905091905056fea2646970667358221220b58e696d43da25c1a866a914c326790b3d5c36817da52d52817b6a85b3c3eab164736f6c634300080b0033",
  "immutableReferences": {},
  "source": "// SPDX-License-Identifier: GPL-3.0\r\npragma solidity >0.5.0 <0.9.0;\r\n\r\ncontract DAO {\r\n  \r\n  struct Proposal{\r\n    uint id;\r\n    string description;\r\n    uint amount;\r\n    address payable recipient;\r\n    uint votes;\r\n    uint end;\r\n    bool isExecuted;\r\n  }\r\n\r\n  mapping(address =>bool ) public isInvestor;//address is investor or not\r\n  mapping(address=>uint)  public numOfshares;//information about shares\r\n  mapping(address=>mapping(uint=>bool)) public isVoted;//voting information of an address for a proposal\r\n  mapping(address=>mapping(address=>bool)) public withdrwalStatus; //manager will set the status of withdrawal\r\n\r\n  address[] public investorList;\r\n  mapping(uint=>Proposal) public proposals; //ids and proposal\r\n  uint public totalShares;\r\n  uint public availableFunds;\r\n  uint public paticipationTimeEnd;\r\n  uint public nextProposalId;\r\n  uint public voteTime;\r\n  uint public quorum;\r\n  address public manager;\r\n\r\n  constructor(uint _paticipationTimeEnd,uint _voteTime,uint _quorum){\r\n     require(_quorum>0 && _quorum<100,\"The value should be between 0 and 100\");//quorum part mistake -2\r\n     paticipationTimeEnd=block.timestamp+_paticipationTimeEnd;\r\n     voteTime= _voteTime;\r\n     quorum= _quorum;\r\n     manager=msg.sender;\r\n  }\r\n\r\n  modifier onlyInvestor(){\r\n    require(isInvestor[msg.sender]==true,\"You are not an investor\");\r\n    _;\r\n  }\r\n   modifier onlyManager(){\r\n    require(manager==msg.sender,\"You are not a manager\");\r\n    _;\r\n  }\r\n\r\n  function contribution() external payable{//1 wei = 1 share, cost of 1 share = 1 wei;\r\n     require( paticipationTimeEnd>=block.timestamp,\"Contribution Time Ended\");\r\n     require(msg.value>0,\"Investiment amount should be greater than 0\");\r\n     isInvestor[msg.sender]=true;\r\n     numOfshares[msg.sender]+=msg.value;\r\n     totalShares+=msg.value;\r\n     availableFunds+=msg.value;\r\n     investorList.push(msg.sender);\r\n  }\r\n\r\n  function reedemShare(uint amount) external onlyInvestor(){//shares withdraw\r\n    require(numOfshares[msg.sender]>=amount,\"You do not have sufficient shares\");\r\n    require(availableFunds>=amount,\"Not sufficient funds\");\r\n    numOfshares[msg.sender]-=amount;\r\n    if(numOfshares[msg.sender]==0){\r\n      isInvestor[msg.sender]=false;\r\n    }\r\n    availableFunds-=amount;\r\n    payable(msg.sender).transfer(amount);\r\n  }\r\n \r\n function transferShare(uint amount,address to) public onlyInvestor(){\r\n   require(numOfshares[msg.sender]>=amount,\"Insufficient shares\");\r\n   require(availableFunds>=amount,\"Not sufficient funds\");\r\n   numOfshares[msg.sender]-=amount;\r\n      if(numOfshares[msg.sender]==0){\r\n      isInvestor[msg.sender]=false;\r\n    }\r\n    numOfshares[to]+=amount;\r\n    isInvestor[to]=true;\r\n }\r\n\r\n function createProposal(string calldata description,uint amount,address payable recipient) public onlyInvestor() {\r\n    require(amount<=availableFunds,\"Not enough funds\");\r\n    proposals[nextProposalId]= Proposal(nextProposalId,description,amount,recipient,0,block.timestamp+voteTime,false);\r\n    nextProposalId++;\r\n }\r\n\r\n function voteProposal(uint proposalId) public onlyInvestor(){\r\n   Proposal storage proposal = proposals[proposalId];\r\n   require(isVoted[msg.sender][proposalId]==false,\"You have already voted for this proposal id\");\r\n   require(proposals[proposalId].end>=block.timestamp,\"Voting time has ended\");\r\n   require(proposals[proposalId].isExecuted==false,\"This has already executed\");//mistake - 3\r\n   isVoted[msg.sender][proposalId]=true;\r\n   proposal.votes+=numOfshares[msg.sender];\r\n }\r\n\r\nfunction executeProposal(uint proposalId) public onlyManager(){\r\n  Proposal storage proposal=proposals[proposalId];\r\n  require(((proposal.votes*100)/totalShares)>=quorum,\"Not greater than the quorum\");\r\n  proposal.isExecuted=true;\r\n  _transfer(proposal.amount,proposal.recipient);\r\n}\r\n\r\nfunction _transfer(uint amount,address payable to) internal{\r\n   require(amount <= availableFunds, 'Funds not available');\r\n   availableFunds -= amount;\r\n   to.transfer(amount);\r\n}\r\n\r\nfunction allow(address to) public onlyManager(){\r\n  withdrwalStatus[manager][to]=true;\r\n}\r\nfunction disallow(address to) public onlyManager(){\r\n  withdrwalStatus[manager][to]=false;\r\n}\r\n\r\nfunction withdrawEther(uint amount) public {\r\n  require(withdrwalStatus[manager][msg.sender]==true,\"You are not allowed to withdraw\");\r\n  require(numOfshares[msg.sender]>=amount,\"Not enought balance to withdraw\");\r\n  numOfshares[msg.sender]-=amount;\r\n  if(numOfshares[msg.sender]==0){\r\n    isInvestor[msg.sender]=false;\r\n  }\r\n  _transfer(amount,payable(msg.sender));\r\n}\r\n\r\nfunction ProposalList() public view returns(Proposal[] memory) {\r\n  Proposal[] memory arr=new Proposal[](nextProposalId);\r\n  for(uint i=0;i<nextProposalId;i++){\r\n\r\n   arr[i]=proposals[i];\r\n\r\n   }\r\nreturn arr;\r\n}\r\nfunction investorsLists() public view returns(address[] memory){\r\n  return investorList;\r\n}\r\n \r\n}\r\n",
  "sourcePath": "C:\\Users\\user\\Desktop\\Projects\\DAOStarter\\contracts\\dao.sol",
  "compiler": {
    "name": "solc",
    "version": "0.8.11+commit.d7f03943.Emscripten.clang"
  },
  "schemaVersion": "3.4.11",
  "updatedAt": "2023-02-05T06:08:28.304Z",
  "networkType": "ethereum",
  "devdoc": {
    "kind": "dev",
    "methods": {},
    "version": 1
  },
  "userdoc": {
    "kind": "user",
    "methods": {},
    "version": 1
  }
}