{
  "contractName": "DAO",
  "abi": [
    {
      "inputs": [
        {
          "internalType": "uint256",
          "name": "_paticipationTimeEnd",
          "type": "uint256"
        },
        {
          "internalType": "uint256",
          "name": "_voteTime",
          "type": "uint256"
        },
        {
          "internalType": "uint256",
          "name": "_quorum",
          "type": "uint256"
        }
      ],
      "stateMutability": "nonpayable",
      "type": "constructor"
    },
    {
      "inputs": [],
      "name": "availableFunds",
      "outputs": [
        {
          "internalType": "uint256",
          "name": "",
          "type": "uint256"
        }
      ],
      "stateMutability": "view",
      "type": "function",
      "constant": true
    },
    {
      "inputs": [
        {
          "internalType": "uint256",
          "name": "",
          "type": "uint256"
        }
      ],
      "name": "investorList",
      "outputs": [
        {
          "internalType": "address",
          "name": "",
          "type": "address"
        }
      ],
      "stateMutability": "view",
      "type": "function",
      "constant": true
    },
    {
      "inputs": [
        {
          "internalType": "address",
          "name": "",
          "type": "address"
        }
      ],
      "name": "isInvestor",
      "outputs": [
        {
          "internalType": "bool",
          "name": "",
          "type": "bool"
        }
      ],
      "stateMutability": "view",
      "type": "function",
      "constant": true
    },
    {
      "inputs": [
        {
          "internalType": "address",
          "name": "",
          "type": "address"
        },
        {
          "internalType": "uint256",
          "name": "",
          "type": "uint256"
        }
      ],
      "name": "isVoted",
      "outputs": [
        {
          "internalType": "bool",
          "name": "",
          "type": "bool"
        }
      ],
      "stateMutability": "view",
      "type": "function",
      "constant": true
    },
    {
      "inputs": [],
      "name": "manager",
      "outputs": [
        {
          "internalType": "address",
          "name": "",
          "type": "address"
        }
      ],
      "stateMutability": "view",
      "type": "function",
      "constant": true
    },
    {
      "inputs": [],
      "name": "nextProposalId",
      "outputs": [
        {
          "internalType": "uint256",
          "name": "",
          "type": "uint256"
        }
      ],
      "stateMutability": "view",
      "type": "function",
      "constant": true
    },
    {
      "inputs": [
        {
          "internalType": "address",
          "name": "",
          "type": "address"
        }
      ],
      "name": "numOfshares",
      "outputs": [
        {
          "internalType": "uint256",
          "name": "",
          "type": "uint256"
        }
      ],
      "stateMutability": "view",
      "type": "function",
      "constant": true
    },
    {
      "inputs": [],
      "name": "paticipationTimeEnd",
      "outputs": [
        {
          "internalType": "uint256",
          "name": "",
          "type": "uint256"
        }
      ],
      "stateMutability": "view",
      "type": "function",
      "constant": true
    },
    {
      "inputs": [
        {
          "internalType": "uint256",
          "name": "",
          "type": "uint256"
        }
      ],
      "name": "proposals",
      "outputs": [
        {
          "internalType": "uint256",
          "name": "id",
          "type": "uint256"
        },
        {
          "internalType": "string",
          "name": "description",
          "type": "string"
        },
        {
          "internalType": "uint256",
          "name": "amount",
          "type": "uint256"
        },
        {
          "internalType": "address payable",
          "name": "recipient",
          "type": "address"
        },
        {
          "internalType": "uint256",
          "name": "votes",
          "type": "uint256"
        },
        {
          "internalType": "uint256",
          "name": "end",
          "type": "uint256"
        },
        {
          "internalType": "bool",
          "name": "isExecuted",
          "type": "bool"
        }
      ],
      "stateMutability": "view",
      "type": "function",
      "constant": true
    },
    {
      "inputs": [],
      "name": "quorum",
      "outputs": [
        {
          "internalType": "uint256",
          "name": "",
          "type": "uint256"
        }
      ],
      "stateMutability": "view",
      "type": "function",
      "constant": true
    },
    {
      "inputs": [],
      "name": "totalShares",
      "outputs": [
        {
          "internalType": "uint256",
          "name": "",
          "type": "uint256"
        }
      ],
      "stateMutability": "view",
      "type": "function",
      "constant": true
    },
    {
      "inputs": [],
      "name": "voteTime",
      "outputs": [
        {
          "internalType": "uint256",
          "name": "",
          "type": "uint256"
        }
      ],
      "stateMutability": "view",
      "type": "function",
      "constant": true
    },
    {
      "inputs": [
        {
          "internalType": "address",
          "name": "",
          "type": "address"
        },
        {
          "internalType": "address",
          "name": "",
          "type": "address"
        }
      ],
      "name": "withdrwalStatus",
      "outputs": [
        {
          "internalType": "bool",
          "name": "",
          "type": "bool"
        }
      ],
      "stateMutability": "view",
      "type": "function",
      "constant": true
    },
    {
      "inputs": [],
      "name": "contribution",
      "outputs": [],
      "stateMutability": "payable",
      "type": "function",
      "payable": true
    },
    {
      "inputs": [
        {
          "internalType": "uint256",
          "name": "amount",
          "type": "uint256"
        }
      ],
      "name": "reedemShare",
      "outputs": [],
      "stateMutability": "nonpayable",
      "type": "function"
    },
    {
      "inputs": [
        {
          "internalType": "uint256",
          "name": "amount",
          "type": "uint256"
        },
        {
          "internalType": "address",
          "name": "to",
          "type": "address"
        }
      ],
      "name": "transferShare",
      "outputs": [],
      "stateMutability": "nonpayable",
      "type": "function"
    },
    {
      "inputs": [
        {
          "internalType": "string",
          "name": "description",
          "type": "string"
        },
        {
          "internalType": "uint256",
          "name": "amount",
          "type": "uint256"
        },
        {
          "internalType": "address payable",
          "name": "recipient",
          "type": "address"
        }
      ],
      "name": "createProposal",
      "outputs": [],
      "stateMutability": "nonpayable",
      "type": "function"
    },
    {
      "inputs": [
        {
          "internalType": "uint256",
          "name": "proposalId",
          "type": "uint256"
        }
      ],
      "name": "voteProposal",
      "outputs": [],
      "stateMutability": "nonpayable",
      "type": "function"
    },
    {
      "inputs": [
        {
          "internalType": "uint256",
          "name": "proposalId",
          "type": "uint256"
        }
      ],
      "name": "executeProposal",
      "outputs": [],
      "stateMutability": "nonpayable",
      "type": "function"
    },
    {
      "inputs": [
        {
          "internalType": "address",
          "name": "to",
          "type": "address"
        }
      ],
      "name": "allow",
      "outputs": [],
      "stateMutability": "nonpayable",
      "type": "function"
    },
    {
      "inputs": [
        {
          "internalType": "address",
          "name": "to",
          "type": "address"
        }
      ],
      "name": "disallow",
      "outputs": [],
      "stateMutability": "nonpayable",
      "type": "function"
    },
    {
      "inputs": [],
      "name": "withdrawAllEther",
      "outputs": [],
      "stateMutability": "nonpayable",
      "type": "function"
    },
    {
      "inputs": [],
      "name": "ProposalList",
      "outputs": [
        {
          "components": [
            {
              "internalType": "uint256",
              "name": "id",
              "type": "uint256"
            },
            {
              "internalType": "string",
              "name": "description",
              "type": "string"
            },
            {
              "internalType": "uint256",
              "name": "amount",
              "type": "uint256"
            },
            {
              "internalType": "address payable",
              "name": "recipient",
              "type": "address"
            },
            {
              "internalType": "uint256",
              "name": "votes",
              "type": "uint256"
            },
            {
              "internalType": "uint256",
              "name": "end",
              "type": "uint256"
            },
            {
              "internalType": "bool",
              "name": "isExecuted",
              "type": "bool"
            }
          ],
          "internalType": "struct DAO.Proposal[]",
          "name": "",
          "type": "tuple[]"
        }
      ],
      "stateMutability": "view",
      "type": "function",
      "constant": true
    },
    {
      "inputs": [],
      "name": "investorsLists",
      "outputs": [
        {
          "internalType": "address[]",
          "name": "",
          "type": "address[]"
        }
      ],
      "stateMutability": "view",
      "type": "function",
      "constant": true
    }
  ],
  "bytecode": "0x60806040523480156200001157600080fd5b506040516200311938038062003119833981810160405281019062000037919062000136565b600081118015620000485750606481105b6200008a576040517f08c379a0000000000000000000000000000000000000000000000000000000008152600401620000819062000219565b60405180910390fd5b82426200009891906200026a565b60088190555081600a8190555080600b8190555033600c60006101000a81548173ffffffffffffffffffffffffffffffffffffffff021916908373ffffffffffffffffffffffffffffffffffffffff160217905550505050620002c7565b600080fd5b6000819050919050565b6200011081620000fb565b81146200011c57600080fd5b50565b600081519050620001308162000105565b92915050565b600080600060608486031215620001525762000151620000f6565b5b600062000162868287016200011f565b935050602062000175868287016200011f565b925050604062000188868287016200011f565b9150509250925092565b600082825260208201905092915050565b7f5468652076616c75652073686f756c64206265206265747765656e203020616e60008201527f6420313030000000000000000000000000000000000000000000000000000000602082015250565b60006200020160258362000192565b91506200020e82620001a3565b604082019050919050565b600060208201905081810360008301526200023481620001f2565b9050919050565b7f4e487b7100000000000000000000000000000000000000000000000000000000600052601160045260246000fd5b60006200027782620000fb565b91506200028483620000fb565b9250827fffffffffffffffffffffffffffffffffffffffffffffffffffffffffffffffff03821115620002bc57620002bb6200023b565b5b828201905092915050565b612e4280620002d76000396000f3fe60806040526004361061014b5760003560e01c806366efb832116100b6578063bcf93dd61161006f578063bcf93dd614610453578063c1188cff1461047e578063cee2a9cf146104a7578063e65da429146104e4578063f242b77214610521578063ff9913e81461055e5761014b565b806366efb832146103455780636ac1e01f146103705780636dfc109914610399578063807896d5146103c45780638ee36f05146103ed578063a9ed9cb81461042a5761014b565b80632ab09d14116101085780632ab09d141461027857806331c91117146102a35780633a98ef39146102ba57806346fcff4c146102e5578063481c6a751461031057806350520b1f1461033b5761014b565b8063013cf08b14610150578063039383e6146101935780630d61b519146101bc5780630d6fd324146101e557806312f9b48e146102105780631703a0181461024d575b600080fd5b34801561015c57600080fd5b5061017760048036038101906101729190611e29565b610587565b60405161018a9796959493929190611f5a565b60405180910390f35b34801561019f57600080fd5b506101ba60048036038101906101b5919061200e565b61067e565b005b3480156101c857600080fd5b506101e360048036038101906101de9190611e29565b61097e565b005b3480156101f157600080fd5b506101fa610ada565b604051610207919061210c565b60405180910390f35b34801561021c57600080fd5b5061023760048036038101906102329190611e29565b610b68565b604051610244919061213d565b60405180910390f35b34801561025957600080fd5b50610262610ba7565b60405161026f9190612158565b60405180910390f35b34801561028457600080fd5b5061028d610bad565b60405161029a9190612158565b60405180910390f35b3480156102af57600080fd5b506102b8610bb3565b005b3480156102c657600080fd5b506102cf610d47565b6040516102dc9190612158565b60405180910390f35b3480156102f157600080fd5b506102fa610d4d565b6040516103079190612158565b60405180910390f35b34801561031c57600080fd5b50610325610d53565b604051610332919061213d565b60405180910390f35b610343610d79565b005b34801561035157600080fd5b5061035a610f45565b6040516103679190612158565b60405180910390f35b34801561037c57600080fd5b5061039760048036038101906103929190612204565b610f4b565b005b3480156103a557600080fd5b506103ae6111a4565b6040516103bb919061244d565b60405180910390f35b3480156103d057600080fd5b506103eb60048036038101906103e69190611e29565b61138f565b005b3480156103f957600080fd5b50610414600480360381019061040f919061246f565b611666565b60405161042191906124af565b60405180910390f35b34801561043657600080fd5b50610451600480360381019061044c91906124ca565b611695565b005b34801561045f57600080fd5b506104686117df565b6040516104759190612158565b60405180910390f35b34801561048a57600080fd5b506104a560048036038101906104a09190611e29565b6117e5565b005b3480156104b357600080fd5b506104ce60048036038101906104c991906124ca565b611a97565b6040516104db91906124af565b60405180910390f35b3480156104f057600080fd5b5061050b600480360381019061050691906124ca565b611ab7565b6040516105189190612158565b60405180910390f35b34801561052d57600080fd5b50610548600480360381019061054391906124f7565b611acf565b60405161055591906124af565b60405180910390f35b34801561056a57600080fd5b50610585600480360381019061058091906124ca565b611afe565b005b60056020528060005260406000206000915090508060000154908060010180546105b090612566565b80601f01602080910402602001604051908101604052809291908181526020018280546105dc90612566565b80156106295780601f106105fe57610100808354040283529160200191610629565b820191906000526020600020905b81548152906001019060200180831161060c57829003601f168201915b5050505050908060020154908060030160009054906101000a900473ffffffffffffffffffffffffffffffffffffffff16908060040154908060050154908060060160009054906101000a900460ff16905087565b600115156000803373ffffffffffffffffffffffffffffffffffffffff1673ffffffffffffffffffffffffffffffffffffffff16815260200190815260200160002060009054906101000a900460ff16151514610710576040517f08c379a0000000000000000000000000000000000000000000000000000000008152600401610707906125e4565b60405180910390fd5b81600160003373ffffffffffffffffffffffffffffffffffffffff1673ffffffffffffffffffffffffffffffffffffffff168152602001908152602001600020541015610792576040517f08c379a000000000000000000000000000000000000000000000000000000000815260040161078990612650565b60405180910390fd5b8160075410156107d7576040517f08c379a00000000000000000000000000000000000000000000000000000000081526004016107ce906126bc565b60405180910390fd5b81600160003373ffffffffffffffffffffffffffffffffffffffff1673ffffffffffffffffffffffffffffffffffffffff1681526020019081526020016000206000828254610826919061270b565b925050819055506000600160003373ffffffffffffffffffffffffffffffffffffffff1673ffffffffffffffffffffffffffffffffffffffff1681526020019081526020016000205414156108cd5760008060003373ffffffffffffffffffffffffffffffffffffffff1673ffffffffffffffffffffffffffffffffffffffff16815260200190815260200160002060006101000a81548160ff0219169083151502179055505b81600160008373ffffffffffffffffffffffffffffffffffffffff1673ffffffffffffffffffffffffffffffffffffffff168152602001908152602001600020600082825461091c919061273f565b9250508190555060016000808373ffffffffffffffffffffffffffffffffffffffff1673ffffffffffffffffffffffffffffffffffffffff16815260200190815260200160002060006101000a81548160ff0219169083151502179055505050565b3373ffffffffffffffffffffffffffffffffffffffff16600c60009054906101000a900473ffffffffffffffffffffffffffffffffffffffff1673ffffffffffffffffffffffffffffffffffffffff1614610a0e576040517f08c379a0000000000000000000000000000000000000000000000000000000008152600401610a05906127e1565b60405180910390fd5b6000600560008381526020019081526020016000209050600b5460065460648360040154610a3c9190612801565b610a46919061288a565b1015610a87576040517f08c379a0000000000000000000000000000000000000000000000000000000008152600401610a7e90612907565b60405180910390fd5b60018160060160006101000a81548160ff021916908315150217905550610ad681600201548260030160009054906101000a900473ffffffffffffffffffffffffffffffffffffffff16611c48565b5050565b60606004805480602002602001604051908101604052809291908181526020018280548015610b5e57602002820191906000526020600020905b8160009054906101000a900473ffffffffffffffffffffffffffffffffffffffff1673ffffffffffffffffffffffffffffffffffffffff1681526020019060010190808311610b14575b5050505050905090565b60048181548110610b7857600080fd5b906000526020600020016000915054906101000a900473ffffffffffffffffffffffffffffffffffffffff1681565b600b5481565b60095481565b6001151560036000600c60009054906101000a900473ffffffffffffffffffffffffffffffffffffffff1673ffffffffffffffffffffffffffffffffffffffff1673ffffffffffffffffffffffffffffffffffffffff16815260200190815260200160002060003373ffffffffffffffffffffffffffffffffffffffff1673ffffffffffffffffffffffffffffffffffffffff16815260200190815260200160002060009054906101000a900460ff16151514610ca5576040517f08c379a0000000000000000000000000000000000000000000000000000000008152600401610c9c90612973565b60405180910390fd5b60008060003373ffffffffffffffffffffffffffffffffffffffff1673ffffffffffffffffffffffffffffffffffffffff16815260200190815260200160002060006101000a81548160ff021916908315150217905550610d45600160003373ffffffffffffffffffffffffffffffffffffffff1673ffffffffffffffffffffffffffffffffffffffff1681526020019081526020016000205433611c48565b565b60065481565b60075481565b600c60009054906101000a900473ffffffffffffffffffffffffffffffffffffffff1681565b426008541015610dbe576040517f08c379a0000000000000000000000000000000000000000000000000000000008152600401610db5906129df565b60405180910390fd5b60003411610e01576040517f08c379a0000000000000000000000000000000000000000000000000000000008152600401610df890612a71565b60405180910390fd5b60016000803373ffffffffffffffffffffffffffffffffffffffff1673ffffffffffffffffffffffffffffffffffffffff16815260200190815260200160002060006101000a81548160ff02191690831515021790555034600160003373ffffffffffffffffffffffffffffffffffffffff1673ffffffffffffffffffffffffffffffffffffffff1681526020019081526020016000206000828254610ea7919061273f565b925050819055503460066000828254610ec0919061273f565b925050819055503460076000828254610ed9919061273f565b925050819055506004339080600181540180825580915050600190039060005260206000200160009091909190916101000a81548173ffffffffffffffffffffffffffffffffffffffff021916908373ffffffffffffffffffffffffffffffffffffffff160217905550565b60085481565b600115156000803373ffffffffffffffffffffffffffffffffffffffff1673ffffffffffffffffffffffffffffffffffffffff16815260200190815260200160002060009054906101000a900460ff16151514610fdd576040517f08c379a0000000000000000000000000000000000000000000000000000000008152600401610fd4906125e4565b60405180910390fd5b600754821115611022576040517f08c379a000000000000000000000000000000000000000000000000000000000815260040161101990612add565b60405180910390fd5b6040518060e00160405280600954815260200185858080601f016020809104026020016040519081016040528093929190818152602001838380828437600081840152601f19601f8201169050808301925050505050505081526020018381526020018273ffffffffffffffffffffffffffffffffffffffff16815260200160008152602001600a54426110b6919061273f565b8152602001600015158152506005600060095481526020019081526020016000206000820151816000015560208201518160010190805190602001906110fd929190611cf1565b506040820151816002015560608201518160030160006101000a81548173ffffffffffffffffffffffffffffffffffffffff021916908373ffffffffffffffffffffffffffffffffffffffff1602179055506080820151816004015560a0820151816005015560c08201518160060160006101000a81548160ff0219169083151502179055509050506009600081548092919061119990612afd565b919050555050505050565b6060600060095467ffffffffffffffff8111156111c4576111c3612b46565b5b6040519080825280602002602001820160405280156111fd57816020015b6111ea611d77565b8152602001906001900390816111e25790505b50905060005b60095481101561138757600560008281526020019081526020016000206040518060e00160405290816000820154815260200160018201805461124590612566565b80601f016020809104026020016040519081016040528092919081815260200182805461127190612566565b80156112be5780601f10611293576101008083540402835291602001916112be565b820191906000526020600020905b8154815290600101906020018083116112a157829003601f168201915b50505050508152602001600282015481526020016003820160009054906101000a900473ffffffffffffffffffffffffffffffffffffffff1673ffffffffffffffffffffffffffffffffffffffff1673ffffffffffffffffffffffffffffffffffffffff16815260200160048201548152602001600582015481526020016006820160009054906101000a900460ff16151515158152505082828151811061136957611368612b75565b5b6020026020010181905250808061137f90612afd565b915050611203565b508091505090565b600115156000803373ffffffffffffffffffffffffffffffffffffffff1673ffffffffffffffffffffffffffffffffffffffff16815260200190815260200160002060009054906101000a900460ff16151514611421576040517f08c379a0000000000000000000000000000000000000000000000000000000008152600401611418906125e4565b60405180910390fd5b600060056000838152602001908152602001600020905060001515600260003373ffffffffffffffffffffffffffffffffffffffff1673ffffffffffffffffffffffffffffffffffffffff168152602001908152602001600020600084815260200190815260200160002060009054906101000a900460ff161515146114dc576040517f08c379a00000000000000000000000000000000000000000000000000000000081526004016114d390612c16565b60405180910390fd5b4260056000848152602001908152602001600020600501541015611535576040517f08c379a000000000000000000000000000000000000000000000000000000000815260040161152c90612c82565b60405180910390fd5b600015156005600084815260200190815260200160002060060160009054906101000a900460ff1615151461159f576040517f08c379a000000000000000000000000000000000000000000000000000000000815260040161159690612cee565b60405180910390fd5b6001600260003373ffffffffffffffffffffffffffffffffffffffff1673ffffffffffffffffffffffffffffffffffffffff168152602001908152602001600020600084815260200190815260200160002060006101000a81548160ff021916908315150217905550600160003373ffffffffffffffffffffffffffffffffffffffff1673ffffffffffffffffffffffffffffffffffffffff1681526020019081526020016000205481600401600082825461165b919061273f565b925050819055505050565b60026020528160005260406000206020528060005260406000206000915091509054906101000a900460ff1681565b3373ffffffffffffffffffffffffffffffffffffffff16600c60009054906101000a900473ffffffffffffffffffffffffffffffffffffffff1673ffffffffffffffffffffffffffffffffffffffff1614611725576040517f08c379a000000000000000000000000000000000000000000000000000000000815260040161171c906127e1565b60405180910390fd5b600060036000600c60009054906101000a900473ffffffffffffffffffffffffffffffffffffffff1673ffffffffffffffffffffffffffffffffffffffff1673ffffffffffffffffffffffffffffffffffffffff16815260200190815260200160002060008373ffffffffffffffffffffffffffffffffffffffff1673ffffffffffffffffffffffffffffffffffffffff16815260200190815260200160002060006101000a81548160ff02191690831515021790555050565b600a5481565b600115156000803373ffffffffffffffffffffffffffffffffffffffff1673ffffffffffffffffffffffffffffffffffffffff16815260200190815260200160002060009054906101000a900460ff16151514611877576040517f08c379a000000000000000000000000000000000000000000000000000000000815260040161186e906125e4565b60405180910390fd5b80600160003373ffffffffffffffffffffffffffffffffffffffff1673ffffffffffffffffffffffffffffffffffffffff1681526020019081526020016000205410156118f9576040517f08c379a00000000000000000000000000000000000000000000000000000000081526004016118f090612d80565b60405180910390fd5b80600754101561193e576040517f08c379a0000000000000000000000000000000000000000000000000000000008152600401611935906126bc565b60405180910390fd5b80600160003373ffffffffffffffffffffffffffffffffffffffff1673ffffffffffffffffffffffffffffffffffffffff168152602001908152602001600020600082825461198d919061270b565b925050819055506000600160003373ffffffffffffffffffffffffffffffffffffffff1673ffffffffffffffffffffffffffffffffffffffff168152602001908152602001600020541415611a345760008060003373ffffffffffffffffffffffffffffffffffffffff1673ffffffffffffffffffffffffffffffffffffffff16815260200190815260200160002060006101000a81548160ff0219169083151502179055505b8060076000828254611a46919061270b565b925050819055503373ffffffffffffffffffffffffffffffffffffffff166108fc829081150290604051600060405180830381858888f19350505050158015611a93573d6000803e3d6000fd5b5050565b60006020528060005260406000206000915054906101000a900460ff1681565b60016020528060005260406000206000915090505481565b60036020528160005260406000206020528060005260406000206000915091509054906101000a900460ff1681565b3373ffffffffffffffffffffffffffffffffffffffff16600c60009054906101000a900473ffffffffffffffffffffffffffffffffffffffff1673ffffffffffffffffffffffffffffffffffffffff1614611b8e576040517f08c379a0000000000000000000000000000000000000000000000000000000008152600401611b85906127e1565b60405180910390fd5b600160036000600c60009054906101000a900473ffffffffffffffffffffffffffffffffffffffff1673ffffffffffffffffffffffffffffffffffffffff1673ffffffffffffffffffffffffffffffffffffffff16815260200190815260200160002060008373ffffffffffffffffffffffffffffffffffffffff1673ffffffffffffffffffffffffffffffffffffffff16815260200190815260200160002060006101000a81548160ff02191690831515021790555050565b600754821115611c8d576040517f08c379a0000000000000000000000000000000000000000000000000000000008152600401611c8490612dec565b60405180910390fd5b8160076000828254611c9f919061270b565b925050819055508073ffffffffffffffffffffffffffffffffffffffff166108fc839081150290604051600060405180830381858888f19350505050158015611cec573d6000803e3d6000fd5b505050565b828054611cfd90612566565b90600052602060002090601f016020900481019282611d1f5760008555611d66565b82601f10611d3857805160ff1916838001178555611d66565b82800160010185558215611d66579182015b82811115611d65578251825591602001919060010190611d4a565b5b509050611d739190611dcc565b5090565b6040518060e00160405280600081526020016060815260200160008152602001600073ffffffffffffffffffffffffffffffffffffffff16815260200160008152602001600081526020016000151581525090565b5b80821115611de5576000816000905550600101611dcd565b5090565b600080fd5b600080fd5b6000819050919050565b611e0681611df3565b8114611e1157600080fd5b50565b600081359050611e2381611dfd565b92915050565b600060208284031215611e3f57611e3e611de9565b5b6000611e4d84828501611e14565b91505092915050565b611e5f81611df3565b82525050565b600081519050919050565b600082825260208201905092915050565b60005b83811015611e9f578082015181840152602081019050611e84565b83811115611eae576000848401525b50505050565b6000601f19601f8301169050919050565b6000611ed082611e65565b611eda8185611e70565b9350611eea818560208601611e81565b611ef381611eb4565b840191505092915050565b600073ffffffffffffffffffffffffffffffffffffffff82169050919050565b6000611f2982611efe565b9050919050565b611f3981611f1e565b82525050565b60008115159050919050565b611f5481611f3f565b82525050565b600060e082019050611f6f600083018a611e56565b8181036020830152611f818189611ec5565b9050611f906040830188611e56565b611f9d6060830187611f30565b611faa6080830186611e56565b611fb760a0830185611e56565b611fc460c0830184611f4b565b98975050505050505050565b6000611fdb82611efe565b9050919050565b611feb81611fd0565b8114611ff657600080fd5b50565b60008135905061200881611fe2565b92915050565b6000806040838503121561202557612024611de9565b5b600061203385828601611e14565b925050602061204485828601611ff9565b9150509250929050565b600081519050919050565b600082825260208201905092915050565b6000819050602082019050919050565b61208381611fd0565b82525050565b6000612095838361207a565b60208301905092915050565b6000602082019050919050565b60006120b98261204e565b6120c38185612059565b93506120ce8361206a565b8060005b838110156120ff5781516120e68882612089565b97506120f1836120a1565b9250506001810190506120d2565b5085935050505092915050565b6000602082019050818103600083015261212681846120ae565b905092915050565b61213781611fd0565b82525050565b6000602082019050612152600083018461212e565b92915050565b600060208201905061216d6000830184611e56565b92915050565b600080fd5b600080fd5b600080fd5b60008083601f84011261219857612197612173565b5b8235905067ffffffffffffffff8111156121b5576121b4612178565b5b6020830191508360018202830111156121d1576121d061217d565b5b9250929050565b6121e181611f1e565b81146121ec57600080fd5b50565b6000813590506121fe816121d8565b92915050565b6000806000806060858703121561221e5761221d611de9565b5b600085013567ffffffffffffffff81111561223c5761223b611dee565b5b61224887828801612182565b9450945050602061225b87828801611e14565b925050604061226c878288016121ef565b91505092959194509250565b600081519050919050565b600082825260208201905092915050565b6000819050602082019050919050565b6122ad81611df3565b82525050565b600082825260208201905092915050565b60006122cf82611e65565b6122d981856122b3565b93506122e9818560208601611e81565b6122f281611eb4565b840191505092915050565b61230681611f1e565b82525050565b61231581611f3f565b82525050565b600060e08301600083015161233360008601826122a4565b506020830151848203602086015261234b82826122c4565b915050604083015161236060408601826122a4565b50606083015161237360608601826122fd565b50608083015161238660808601826122a4565b5060a083015161239960a08601826122a4565b5060c08301516123ac60c086018261230c565b508091505092915050565b60006123c3838361231b565b905092915050565b6000602082019050919050565b60006123e382612278565b6123ed8185612283565b9350836020820285016123ff85612294565b8060005b8581101561243b578484038952815161241c85826123b7565b9450612427836123cb565b925060208a01995050600181019050612403565b50829750879550505050505092915050565b6000602082019050818103600083015261246781846123d8565b905092915050565b6000806040838503121561248657612485611de9565b5b600061249485828601611ff9565b92505060206124a585828601611e14565b9150509250929050565b60006020820190506124c46000830184611f4b565b92915050565b6000602082840312156124e0576124df611de9565b5b60006124ee84828501611ff9565b91505092915050565b6000806040838503121561250e5761250d611de9565b5b600061251c85828601611ff9565b925050602061252d85828601611ff9565b9150509250929050565b7f4e487b7100000000000000000000000000000000000000000000000000000000600052602260045260246000fd5b6000600282049050600182168061257e57607f821691505b6020821081141561259257612591612537565b5b50919050565b7f596f7520617265206e6f7420616e20696e766573746f72000000000000000000600082015250565b60006125ce601783611e70565b91506125d982612598565b602082019050919050565b600060208201905081810360008301526125fd816125c1565b9050919050565b7f496e73756666696369656e742073686172657300000000000000000000000000600082015250565b600061263a601383611e70565b915061264582612604565b602082019050919050565b600060208201905081810360008301526126698161262d565b9050919050565b7f4e6f742073756666696369656e742066756e6473000000000000000000000000600082015250565b60006126a6601483611e70565b91506126b182612670565b602082019050919050565b600060208201905081810360008301526126d581612699565b9050919050565b7f4e487b7100000000000000000000000000000000000000000000000000000000600052601160045260246000fd5b600061271682611df3565b915061272183611df3565b925082821015612734576127336126dc565b5b828203905092915050565b600061274a82611df3565b915061275583611df3565b9250827fffffffffffffffffffffffffffffffffffffffffffffffffffffffffffffffff0382111561278a576127896126dc565b5b828201905092915050565b7f596f7520617265206e6f742061206d616e616765720000000000000000000000600082015250565b60006127cb601583611e70565b91506127d682612795565b602082019050919050565b600060208201905081810360008301526127fa816127be565b9050919050565b600061280c82611df3565b915061281783611df3565b9250817fffffffffffffffffffffffffffffffffffffffffffffffffffffffffffffffff04831182151516156128505761284f6126dc565b5b828202905092915050565b7f4e487b7100000000000000000000000000000000000000000000000000000000600052601260045260246000fd5b600061289582611df3565b91506128a083611df3565b9250826128b0576128af61285b565b5b828204905092915050565b7f4e6f742067726561746572207468616e207468652071756f72756d0000000000600082015250565b60006128f1601b83611e70565b91506128fc826128bb565b602082019050919050565b60006020820190508181036000830152612920816128e4565b9050919050565b7f596f7520617265206e6f7420616c6c6f77656420746f20776974686472617700600082015250565b600061295d601f83611e70565b915061296882612927565b602082019050919050565b6000602082019050818103600083015261298c81612950565b9050919050565b7f436f6e747269627574696f6e2054696d6520456e646564000000000000000000600082015250565b60006129c9601783611e70565b91506129d482612993565b602082019050919050565b600060208201905081810360008301526129f8816129bc565b9050919050565b7f496e76657374696d656e7420616d6f756e742073686f756c642062652067726560008201527f61746572207468616e2030000000000000000000000000000000000000000000602082015250565b6000612a5b602b83611e70565b9150612a66826129ff565b604082019050919050565b60006020820190508181036000830152612a8a81612a4e565b9050919050565b7f4e6f7420656e6f7567682066756e647300000000000000000000000000000000600082015250565b6000612ac7601083611e70565b9150612ad282612a91565b602082019050919050565b60006020820190508181036000830152612af681612aba565b9050919050565b6000612b0882611df3565b91507fffffffffffffffffffffffffffffffffffffffffffffffffffffffffffffffff821415612b3b57612b3a6126dc565b5b600182019050919050565b7f4e487b7100000000000000000000000000000000000000000000000000000000600052604160045260246000fd5b7f4e487b7100000000000000000000000000000000000000000000000000000000600052603260045260246000fd5b7f596f75206861766520616c726561647920766f74656420666f7220746869732060008201527f70726f706f73616c206964000000000000000000000000000000000000000000602082015250565b6000612c00602b83611e70565b9150612c0b82612ba4565b604082019050919050565b60006020820190508181036000830152612c2f81612bf3565b9050919050565b7f566f74696e672074696d652068617320656e6465640000000000000000000000600082015250565b6000612c6c601583611e70565b9150612c7782612c36565b602082019050919050565b60006020820190508181036000830152612c9b81612c5f565b9050919050565b7f546869732068617320616c726561647920657865637574656400000000000000600082015250565b6000612cd8601983611e70565b9150612ce382612ca2565b602082019050919050565b60006020820190508181036000830152612d0781612ccb565b9050919050565b7f596f7520646f206e6f7420686176652073756666696369656e7420736861726560008201527f7300000000000000000000000000000000000000000000000000000000000000602082015250565b6000612d6a602183611e70565b9150612d7582612d0e565b604082019050919050565b60006020820190508181036000830152612d9981612d5d565b9050919050565b7f46756e6473206e6f7420617661696c61626c6500000000000000000000000000600082015250565b6000612dd6601383611e70565b9150612de182612da0565b602082019050919050565b60006020820190508181036000830152612e0581612dc9565b905091905056fea26469706673582212203e4ecb78462e3f8c1f68965faf84a8027fbbc731b354b0358a06917b70fdca6564736f6c634300080b0033",
  "immutableReferences": {},
  "source": "// SPDX-License-Identifier: GPL-3.0\r\npragma solidity >0.5.0 <0.9.0;\r\n\r\ncontract DAO {\r\n  \r\n  struct Proposal{\r\n    uint id;\r\n    string description;\r\n    uint amount;\r\n    address payable recipient;\r\n    uint votes;\r\n    uint end;\r\n    bool isExecuted;\r\n  }\r\n\r\n  mapping(address =>bool ) public isInvestor;//address is investor or not\r\n  mapping(address=>uint)  public numOfshares;//information about shares\r\n  mapping(address=>mapping(uint=>bool)) public isVoted;//voting information of an address for a proposal\r\n  mapping(address=>mapping(address=>bool)) public withdrwalStatus; //manager will set the status of withdrawal\r\n\r\n  address[] public investorList;\r\n  mapping(uint=>Proposal) public proposals; //ids and proposal\r\n  uint public totalShares;\r\n  uint public availableFunds;\r\n  uint public paticipationTimeEnd;\r\n  uint public nextProposalId;\r\n  uint public voteTime;\r\n  uint public quorum;\r\n  address public manager;\r\n\r\n  constructor(uint _paticipationTimeEnd,uint _voteTime,uint _quorum){\r\n     require(_quorum>0 && _quorum<100,\"The value should be between 0 and 100\");//quorum part mistake -2\r\n     paticipationTimeEnd=block.timestamp+_paticipationTimeEnd;\r\n     voteTime= _voteTime;\r\n     quorum= _quorum;\r\n     manager=msg.sender;\r\n  }\r\n\r\n  modifier onlyInvestor(){\r\n    require(isInvestor[msg.sender]==true,\"You are not an investor\");\r\n    _;\r\n  }\r\n   modifier onlyManager(){\r\n    require(manager==msg.sender,\"You are not a manager\");\r\n    _;\r\n  }\r\n\r\n  function contribution() external payable{//1 wei = 1 share, cost of 1 share = 1 wei;\r\n       require( paticipationTimeEnd>=block.timestamp,\"Contribution Time Ended\");\r\n     require(msg.value>0,\"Investiment amount should be greater than 0\");\r\n     isInvestor[msg.sender]=true;\r\n     numOfshares[msg.sender]+=msg.value;\r\n     totalShares+=msg.value;  \r\n     availableFunds+=msg.value;\r\n     investorList.push(msg.sender);\r\n  }\r\n\r\n  function reedemShare(uint amount) external onlyInvestor(){//shares withdraw\r\n    require(numOfshares[msg.sender]>=amount,\"You do not have sufficient shares\");\r\n    require(availableFunds>=amount,\"Not sufficient funds\");\r\n    numOfshares[msg.sender]-=amount;\r\n    if(numOfshares[msg.sender]==0){\r\n      isInvestor[msg.sender]=false;\r\n    }\r\n    availableFunds-=amount;\r\n    payable(msg.sender).transfer(amount);\r\n  }\r\n \r\n function transferShare(uint amount,address to) public onlyInvestor(){\r\n   require(numOfshares[msg.sender]>=amount,\"Insufficient shares\");\r\n   require(availableFunds>=amount,\"Not sufficient funds\");\r\n   numOfshares[msg.sender]-=amount;\r\n      if(numOfshares[msg.sender]==0){\r\n      isInvestor[msg.sender]=false;\r\n    }\r\n    numOfshares[to]+=amount;\r\n    isInvestor[to]=true;\r\n }\r\n\r\n function createProposal(string calldata description,uint amount,address payable recipient) public onlyInvestor() {\r\n    require(amount<=availableFunds,\"Not enough funds\");\r\n    proposals[nextProposalId]= Proposal(nextProposalId,description,amount,recipient,0,block.timestamp+voteTime,false);\r\n    nextProposalId++;\r\n }\r\n\r\n function voteProposal(uint proposalId) public onlyInvestor(){\r\n   Proposal storage proposal = proposals[proposalId];\r\n   require(isVoted[msg.sender][proposalId]==false,\"You have already voted for this proposal id\");\r\n   require(proposals[proposalId].end>=block.timestamp,\"Voting time has ended\");\r\n   require(proposals[proposalId].isExecuted==false,\"This has already executed\");//mistake - 3\r\n   isVoted[msg.sender][proposalId]=true;\r\n   proposal.votes+=numOfshares[msg.sender];\r\n }\r\n\r\nfunction executeProposal(uint proposalId) public onlyManager(){\r\n  Proposal storage proposal=proposals[proposalId];\r\n  require(((proposal.votes*100)/totalShares)>=quorum,\"Not greater than the quorum\");\r\n  proposal.isExecuted=true;\r\n  _transfer(proposal.amount,proposal.recipient);\r\n}\r\n\r\nfunction _transfer(uint amount,address payable to) internal{\r\n   require(amount <= availableFunds, 'Funds not available');\r\n   availableFunds -= amount;\r\n   to.transfer(amount);\r\n}\r\n\r\nfunction allow(address to) public onlyManager(){\r\n  withdrwalStatus[manager][to]=true;\r\n}\r\nfunction disallow(address to) public onlyManager(){\r\n  withdrwalStatus[manager][to]=false;\r\n}\r\n\r\nfunction withdrawAllEther() public { \r\n  require(withdrwalStatus[manager][msg.sender]==true,\"You are not allowed to withdraw\");\r\n    isInvestor[msg.sender]=false;\r\n  _transfer(numOfshares[msg.sender],payable(msg.sender));\r\n}\r\n\r\nfunction ProposalList() public view returns(Proposal[] memory) {\r\n  Proposal[] memory arr=new Proposal[](nextProposalId);\r\n  for(uint i=0;i<nextProposalId;i++){\r\n\r\n   arr[i]=proposals[i];\r\n\r\n   }\r\nreturn arr;\r\n}\r\nfunction investorsLists() public view returns(address[] memory){\r\n  return investorList;\r\n}\r\n \r\n}\r\n",
  "sourcePath": "C:\\Users\\sattvik dwivedi\\DAOstarter\\contracts\\dao.sol",
  "compiler": {
    "name": "solc",
    "version": "0.8.11+commit.d7f03943.Emscripten.clang"
  },
  "schemaVersion": "3.4.11",
  "updatedAt": "2023-03-20T14:29:21.735Z",
  "networkType": "ethereum",
  "devdoc": {
    "kind": "dev",
    "methods": {},
    "version": 1
  },
  "userdoc": {
    "kind": "user",
    "methods": {},
    "version": 1
  }
}